{
  "contractName": "ControlAcceso",
  "abi": [
    {
      "constant": true,
      "inputs": [],
      "name": "userCount",
      "outputs": [
        {
          "name": "",
          "type": "uint256"
        }
      ],
      "payable": false,
      "stateMutability": "view",
      "type": "function",
      "signature": "0x07973ccf"
    },
    {
      "constant": true,
      "inputs": [
        {
          "name": "",
          "type": "uint256"
        }
      ],
      "name": "usersArray",
      "outputs": [
        {
          "name": "",
          "type": "address"
        }
      ],
      "payable": false,
      "stateMutability": "view",
      "type": "function",
      "signature": "0x2fae35c0"
    },
    {
      "constant": true,
      "inputs": [],
      "name": "owner",
      "outputs": [
        {
          "name": "",
          "type": "address"
        }
      ],
      "payable": false,
      "stateMutability": "view",
      "type": "function",
      "signature": "0x8da5cb5b"
    },
    {
      "constant": true,
      "inputs": [
        {
          "name": "",
          "type": "address"
        }
      ],
      "name": "addressToUser",
      "outputs": [
        {
          "name": "userAddress",
          "type": "address"
        },
        {
          "name": "username",
          "type": "string"
        },
        {
          "name": "id",
          "type": "uint256"
        },
        {
          "name": "admin",
          "type": "bool"
        },
        {
          "name": "creationDate",
          "type": "uint256"
        }
      ],
      "payable": false,
      "stateMutability": "view",
      "type": "function",
      "signature": "0xedf53886"
    },
    {
      "inputs": [],
      "payable": false,
      "stateMutability": "nonpayable",
      "type": "constructor",
      "signature": "constructor"
    },
    {
      "anonymous": false,
      "inputs": [
        {
          "indexed": false,
          "name": "userAddress",
          "type": "address"
        },
        {
          "indexed": false,
          "name": "username",
          "type": "string"
        },
        {
          "indexed": false,
          "name": "id",
          "type": "uint256"
        },
        {
          "indexed": false,
          "name": "admin",
          "type": "bool"
        }
      ],
      "name": "CreateUser",
      "type": "event",
      "signature": "0x0b6981b3c7224dfb942f6b68c4b81905a7b22334f5f6cfeb5e52cc9c0ddc36b1"
    },
    {
      "anonymous": false,
      "inputs": [
        {
          "indexed": false,
          "name": "userAddress",
          "type": "address"
        }
      ],
      "name": "RemoveUser",
      "type": "event",
      "signature": "0x0ad8e54ac59bf2d8a7a1474c1af503b593553cf4fcaaffdef04ab5249f89762b"
    },
    {
      "constant": false,
      "inputs": [
        {
          "name": "_userAddress",
          "type": "address"
        },
        {
          "name": "_username",
          "type": "string"
        },
        {
          "name": "_admin",
          "type": "bool"
        }
      ],
      "name": "addUser",
      "outputs": [],
      "payable": false,
      "stateMutability": "nonpayable",
      "type": "function",
      "signature": "0x06dde62d"
    },
    {
      "constant": true,
      "inputs": [
        {
          "name": "index",
          "type": "uint256"
        }
      ],
      "name": "getUser",
      "outputs": [
        {
          "name": "",
          "type": "string"
        }
      ],
      "payable": false,
      "stateMutability": "view",
      "type": "function",
      "signature": "0xb0467deb"
    },
    {
      "constant": true,
      "inputs": [
        {
          "name": "_username",
          "type": "string"
        }
      ],
      "name": "checkUsername",
      "outputs": [
        {
          "name": "",
          "type": "bool"
        }
      ],
      "payable": false,
      "stateMutability": "view",
      "type": "function",
      "signature": "0xa5d87c40"
    },
    {
      "constant": false,
      "inputs": [
        {
          "name": "_userAddress",
          "type": "address"
        }
      ],
      "name": "removeUser",
      "outputs": [],
      "payable": false,
      "stateMutability": "nonpayable",
      "type": "function",
      "signature": "0x98575188"
    }
  ],
  "bytecode": "0x60806040526000600160006101000a81548173ffffffffffffffffffffffffffffffffffffffff021916908373ffffffffffffffffffffffffffffffffffffffff1602179055503480156200005357600080fd5b50336000806101000a81548173ffffffffffffffffffffffffffffffffffffffff021916908373ffffffffffffffffffffffffffffffffffffffff1602179055506001600281905550620000a662000380565b60a0604051908101604052806000809054906101000a900473ffffffffffffffffffffffffffffffffffffffff1673ffffffffffffffffffffffffffffffffffffffff1681526020016040805190810160405280600581526020017f61646d696e0000000000000000000000000000000000000000000000000000008152508152602001600254815260200160011515815260200142815250905080600360008060009054906101000a900473ffffffffffffffffffffffffffffffffffffffff1673ffffffffffffffffffffffffffffffffffffffff1673ffffffffffffffffffffffffffffffffffffffff16815260200190815260200160002060008201518160000160006101000a81548173ffffffffffffffffffffffffffffffffffffffff021916908373ffffffffffffffffffffffffffffffffffffffff160217905550602082015181600101908051906020019062000207929190620003c8565b506040820151816002015560608201518160030160006101000a81548160ff0219169083151502179055506080820151816004015590505060043390806001815401808255809150509060018203906000526020600020016000909192909190916101000a81548173ffffffffffffffffffffffffffffffffffffffff021916908373ffffffffffffffffffffffffffffffffffffffff160217905550507f0b6981b3c7224dfb942f6b68c4b81905a7b22334f5f6cfeb5e52cc9c0ddc36b16000809054906101000a900473ffffffffffffffffffffffffffffffffffffffff166002546001604051808473ffffffffffffffffffffffffffffffffffffffff1673ffffffffffffffffffffffffffffffffffffffff1681526020018060200184815260200183151515158152602001828103825260058152602001807f61646d696e00000000000000000000000000000000000000000000000000000081525060200194505050505060405180910390a15062000477565b60a060405190810160405280600073ffffffffffffffffffffffffffffffffffffffff1681526020016060815260200160008152602001600015158152602001600081525090565b828054600181600116156101000203166002900490600052602060002090601f016020900481019282601f106200040b57805160ff19168380011785556200043c565b828001600101855582156200043c579182015b828111156200043b5782518255916020019190600101906200041e565b5b5090506200044b91906200044f565b5090565b6200047491905b808211156200047057600081600090555060010162000456565b5090565b90565b61138480620004876000396000f3fe60806040526004361061008e576000357c0100000000000000000000000000000000000000000000000000000000900463ffffffff16806306dde62d1461009357806307973ccf146101875780632fae35c0146101b25780638da5cb5b1461022d5780639857518814610284578063a5d87c40146102d5578063b0467deb146103b5578063edf5388614610469575b600080fd5b34801561009f57600080fd5b50610185600480360360608110156100b657600080fd5b81019080803573ffffffffffffffffffffffffffffffffffffffff169060200190929190803590602001906401000000008111156100f357600080fd5b82018360208201111561010557600080fd5b8035906020019184600183028401116401000000008311171561012757600080fd5b91908080601f016020809104026020016040519081016040528093929190818152602001838380828437600081840152601f19601f82011690508083019250505050505050919291929080351515906020019092919050505061057f565b005b34801561019357600080fd5b5061019c6109c6565b6040518082815260200191505060405180910390f35b3480156101be57600080fd5b506101eb600480360360208110156101d557600080fd5b81019080803590602001909291905050506109cc565b604051808273ffffffffffffffffffffffffffffffffffffffff1673ffffffffffffffffffffffffffffffffffffffff16815260200191505060405180910390f35b34801561023957600080fd5b50610242610a0a565b604051808273ffffffffffffffffffffffffffffffffffffffff1673ffffffffffffffffffffffffffffffffffffffff16815260200191505060405180910390f35b34801561029057600080fd5b506102d3600480360360208110156102a757600080fd5b81019080803573ffffffffffffffffffffffffffffffffffffffff169060200190929190505050610a2f565b005b3480156102e157600080fd5b5061039b600480360360208110156102f857600080fd5b810190808035906020019064010000000081111561031557600080fd5b82018360208201111561032757600080fd5b8035906020019184600183028401116401000000008311171561034957600080fd5b91908080601f016020809104026020016040519081016040528093929190818152602001838380828437600081840152601f19601f820116905080830192505050505050509192919290505050610db1565b604051808215151515815260200191505060405180910390f35b3480156103c157600080fd5b506103ee600480360360208110156103d857600080fd5b8101908080359060200190929190505050610f17565b6040518080602001828103825283818151815260200191508051906020019080838360005b8381101561042e578082015181840152602081019050610413565b50505050905090810190601f16801561045b5780820380516001836020036101000a031916815260200191505b509250505060405180910390f35b34801561047557600080fd5b506104b86004803603602081101561048c57600080fd5b81019080803573ffffffffffffffffffffffffffffffffffffffff169060200190929190505050611051565b604051808673ffffffffffffffffffffffffffffffffffffffff1673ffffffffffffffffffffffffffffffffffffffff1681526020018060200185815260200184151515158152602001838152602001828103825286818151815260200191508051906020019080838360005b83811015610540578082015181840152602081019050610525565b50505050905090810190601f16801561056d5780820380516001836020036101000a031916815260200191505b50965050505050505060405180910390f35b60011515600360003373ffffffffffffffffffffffffffffffffffffffff1673ffffffffffffffffffffffffffffffffffffffff16815260200190815260200160002060030160009054906101000a900460ff161515141515610670576040517f08c379a00000000000000000000000000000000000000000000000000000000081526004018080602001828103825260228152602001807f4f6e6c792061646d696e732063616e2063616c6c20746869732066756e63746981526020017f6f6e00000000000000000000000000000000000000000000000000000000000081525060400191505060405180910390fd5b61067982610db1565b80156106c757506000600360008573ffffffffffffffffffffffffffffffffffffffff1673ffffffffffffffffffffffffffffffffffffffff16815260200190815260200160002060020154145b151561073b576040517f08c379a000000000000000000000000000000000000000000000000000000000815260040180806020018281038252601b8152602001807f5468697320757365726e616d6520616c7265616479206578697374000000000081525060200191505060405180910390fd5b600260008154809291906001019190505550610755611223565b60a0604051908101604052808573ffffffffffffffffffffffffffffffffffffffff1681526020018481526020016002548152602001831515815260200142815250905080600360008673ffffffffffffffffffffffffffffffffffffffff1673ffffffffffffffffffffffffffffffffffffffff16815260200190815260200160002060008201518160000160006101000a81548173ffffffffffffffffffffffffffffffffffffffff021916908373ffffffffffffffffffffffffffffffffffffffff160217905550602082015181600101908051906020019061083c92919061126b565b506040820151816002015560608201518160030160006101000a81548160ff0219169083151502179055506080820151816004015590505060048490806001815401808255809150509060018203906000526020600020016000909192909190916101000a81548173ffffffffffffffffffffffffffffffffffffffff021916908373ffffffffffffffffffffffffffffffffffffffff160217905550507f0b6981b3c7224dfb942f6b68c4b81905a7b22334f5f6cfeb5e52cc9c0ddc36b1848460025485604051808573ffffffffffffffffffffffffffffffffffffffff1673ffffffffffffffffffffffffffffffffffffffff1681526020018060200184815260200183151515158152602001828103825285818151815260200191508051906020019080838360005b83811015610983578082015181840152602081019050610968565b50505050905090810190601f1680156109b05780820380516001836020036101000a031916815260200191505b509550505050505060405180910390a150505050565b60025481565b6004818154811015156109db57fe5b906000526020600020016000915054906101000a900473ffffffffffffffffffffffffffffffffffffffff1681565b6000809054906101000a900473ffffffffffffffffffffffffffffffffffffffff1681565b600160009054906101000a900473ffffffffffffffffffffffffffffffffffffffff1673ffffffffffffffffffffffffffffffffffffffff16600360008373ffffffffffffffffffffffffffffffffffffffff1673ffffffffffffffffffffffffffffffffffffffff16815260200190815260200160002060000160009054906101000a900473ffffffffffffffffffffffffffffffffffffffff1673ffffffffffffffffffffffffffffffffffffffff1614151515610b57576040517f08c379a000000000000000000000000000000000000000000000000000000000815260040180806020018281038252600e8152602001807f75736572206e6f7420666f756e6400000000000000000000000000000000000081525060200191505060405180910390fd5b600080610b638361114c565b80925081935050508115610dac5760006004600160025403815481101515610b8757fe5b9060005260206000200160009054906101000a900473ffffffffffffffffffffffffffffffffffffffff16905060018201600360008373ffffffffffffffffffffffffffffffffffffffff1673ffffffffffffffffffffffffffffffffffffffff1681526020019081526020016000206002018190555080600483815481101515610c0e57fe5b9060005260206000200160006101000a81548173ffffffffffffffffffffffffffffffffffffffff021916908373ffffffffffffffffffffffffffffffffffffffff160217905550600360008573ffffffffffffffffffffffffffffffffffffffff1673ffffffffffffffffffffffffffffffffffffffff168152602001908152602001600020600080820160006101000a81549073ffffffffffffffffffffffffffffffffffffffff0219169055600182016000610ccd91906112eb565b60028201600090556003820160006101000a81549060ff0219169055600482016000905550506004600160025403815481101515610d0757fe5b9060005260206000200160006101000a81549073ffffffffffffffffffffffffffffffffffffffff02191690557f0ad8e54ac59bf2d8a7a1474c1af503b593553cf4fcaaffdef04ab5249f89762b84604051808273ffffffffffffffffffffffffffffffffffffffff1673ffffffffffffffffffffffffffffffffffffffff16815260200191505060405180910390a160026000815480929190600190039190505550505b505050565b600080600090505b600254811015610f0c57606060036000600484815481101515610dd857fe5b9060005260206000200160009054906101000a900473ffffffffffffffffffffffffffffffffffffffff1673ffffffffffffffffffffffffffffffffffffffff1673ffffffffffffffffffffffffffffffffffffffff1681526020019081526020016000206001018054600181600116156101000203166002900480601f016020809104026020016040519081016040528092919081815260200182805460018160011615610100020316600290048015610ed45780601f10610ea957610100808354040283529160200191610ed4565b820191906000526020600020905b815481529060010190602001808311610eb757829003601f168201915b50505050509050610ee4816111f7565b610eed856111f7565b1415610efe57600092505050610f12565b508080600101915050610db9565b50600190505b919050565b606060008210158015610f2b575060025482105b1515610f3657600080fd5b60036000600484815481101515610f4957fe5b9060005260206000200160009054906101000a900473ffffffffffffffffffffffffffffffffffffffff1673ffffffffffffffffffffffffffffffffffffffff1673ffffffffffffffffffffffffffffffffffffffff1681526020019081526020016000206001018054600181600116156101000203166002900480601f0160208091040260200160405190810160405280929190818152602001828054600181600116156101000203166002900480156110455780601f1061101a57610100808354040283529160200191611045565b820191906000526020600020905b81548152906001019060200180831161102857829003601f168201915b50505050509050919050565b60036020528060005260406000206000915090508060000160009054906101000a900473ffffffffffffffffffffffffffffffffffffffff1690806001018054600181600116156101000203166002900480601f0160208091040260200160405190810160405280929190818152602001828054600181600116156101000203166002900480156111235780601f106110f857610100808354040283529160200191611123565b820191906000526020600020905b81548152906001019060200180831161110657829003601f168201915b5050505050908060020154908060030160009054906101000a900460ff16908060040154905085565b60008060008090505b6002548110156111e65760048181548110151561116e57fe5b9060005260206000200160009054906101000a900473ffffffffffffffffffffffffffffffffffffffff1673ffffffffffffffffffffffffffffffffffffffff168473ffffffffffffffffffffffffffffffffffffffff1614156111d95760018192509250506111f2565b8080600101915050611155565b50600080809050915091505b915091565b6000606082905060008151141561121557600060010291505061121e565b60208301519150505b919050565b60a060405190810160405280600073ffffffffffffffffffffffffffffffffffffffff1681526020016060815260200160008152602001600015158152602001600081525090565b828054600181600116156101000203166002900490600052602060002090601f016020900481019282601f106112ac57805160ff19168380011785556112da565b828001600101855582156112da579182015b828111156112d95782518255916020019190600101906112be565b5b5090506112e79190611333565b5090565b50805460018160011615610100020316600290046000825580601f106113115750611330565b601f01602090049060005260206000209081019061132f9190611333565b5b50565b61135591905b80821115611351576000816000905550600101611339565b5090565b9056fea165627a7a723058207fcf2dd548cdb122c247a42ab50b9d26e12a46ac5aacff49ba0d2f121e4876700029",
  "source": "pragma solidity ^0.5.0;\n\ncontract ControlAcceso {\n    address public owner;\n    address nullAddress = 0x0000000000000000000000000000000000000000;\n    uint public userCount;\n    mapping(address => User) public addressToUser;\n    // mapping(uint => address) public idToUserAddress;\n    address[] public usersArray;\n    /*\n\n     */\n    struct User {\n        address userAddress;\n        string username;\n        uint id;\n        bool admin;\n        uint creationDate;\n    }\n\n    event CreateUser(\n        address userAddress,\n        string username,\n        uint id,\n        bool admin\n    );\n\n    event RemoveUser(\n        address userAddress\n    );\n\n    constructor() public {\n        owner = msg.sender;\n        userCount = 1;\n        User memory _newUser = User(owner, \"admin\", userCount, true, now);\n        addressToUser[owner] = _newUser;\n        usersArray.push(msg.sender);\n        emit CreateUser(owner, \"admin\", userCount, true);\n    }\n\n    modifier onlyOwner {\n        require(msg.sender == owner, \"Only owner can call this function\");\n        _;\n    }\n\n    modifier onlyAdmin {\n        // require(addressToUser[msg.sender].userAddress != nullAddress && addressToUser[msg.sender].admin == true, \"Only admins can call this function\");\n        require(addressToUser[msg.sender].admin == true, \"Only admins can call this function\");\n        _;\n    }\n\n    function addUser(address _userAddress, string memory _username, bool _admin) public onlyAdmin {\n        require(checkUsername(_username) && addressToUser[_userAddress].id == 0, \"This username already exist\");\n        userCount++;\n        User memory _newUser = User(_userAddress, _username, userCount,_admin, now);\n        addressToUser[_userAddress] = _newUser;\n        // idToUserAddress[userCount] = _userAddress;\n        usersArray.push(_userAddress);\n        emit CreateUser(_userAddress, _username, userCount, _admin);\n    }\n\n\n    /* \n        !!! Función de testeo, ELIMINAR O COMENTAR LUEGO.\n    */\n    function getUser(uint index) public view returns (string memory){\n        require(index >= 0 && index < userCount);\n        return addressToUser[usersArray[index]].username;\n    }\n\n    /*  Función que comprueba si un userame está en uso.\n        Disminuye mucho la eficiencia del contrato, pues puede \n        conllevar un gran gasto de gas al crecer el\n        número de usuarios. \n    */\n    function checkUsername(string memory _username) public view returns(bool) {\n         for(uint i = 0; i < userCount; i++) {\n            // address exu = usersArray[i];\n            string memory aux = addressToUser[usersArray[i]].username;\n            //string memory aux = addressToUser[idToUserAddress[i]].username;\n            if(stringToBytes32(_username) == stringToBytes32(aux)) {\n                return false;\n            }\n        }\n        return true;\n    }\n\n    // Utilidad para pasar pasar de string a bytes32 y poder comparar cadenas.\n    function stringToBytes32(string memory source) private pure returns (bytes32 result) {\n        bytes memory tempEmptyStringTest = bytes(source);\n        if (tempEmptyStringTest.length == 0) {\n            return 0x0;\n        }\n\n        assembly {\n            result := mload(add(source, 32))\n        }\n    }\n\n    /*\n        Busca en el array de usuarios la posición del usuario con address _user.\n        Devuelve una tupla con un booleano que indica si se ha encontrado y un \n        entero que indica la posición donde se ha encontrado.\n     */\n    function findUserIndex(address _user) private view returns (bool, uint) {\n        for(uint i = 0; i < userCount; i++) {\n            if(_user == usersArray[i]) {\n                return (true,i);\n            }\n        }\n        return (false, 0);\n    }\n\n    function removeUser(address _userAddress) public {\n        // requerir que sea admin o el propio usuario\n        require (addressToUser[_userAddress].userAddress != nullAddress, 'user not found');\n        bool finded;\n        uint index;\n        (finded, index) = findUserIndex(_userAddress);\n\n        if(finded) {\n            address lastUser = usersArray[userCount-1];\n            addressToUser[lastUser].id = index+1; // puede que sobre\n            usersArray[index] = lastUser;\n            delete addressToUser[_userAddress];\n            delete usersArray[userCount-1];\n            emit RemoveUser(_userAddress);\n            userCount--;\n        }\n    }\n}",
  "sourcePath": "/home/yisus/Documentos/IngenieriaInformatica/Cuarto/Segundo Cuatrimestre/server-access-control/contracts/ControlAcceso.sol",
  "compiler": {
    "name": "solc",
    "version": "0.5.0+commit.1d4f565a.Emscripten.clang"
  },
  "schemaVersion": "3.0.6",
  "updatedAt": "2019-05-24T14:37:17.167Z",
  "devdoc": {
    "methods": {}
  },
  "userdoc": {
    "methods": {}
  }
}