{
  "contractName": "ControlAcceso",
  "abi": [
    {
      "constant": true,
      "inputs": [],
      "name": "userCount",
      "outputs": [
        {
          "name": "",
          "type": "uint256"
        }
      ],
      "payable": false,
      "stateMutability": "view",
      "type": "function"
    },
    {
      "constant": true,
      "inputs": [
        {
          "name": "",
          "type": "uint256"
        }
      ],
      "name": "usersArray",
      "outputs": [
        {
          "name": "",
          "type": "address"
        }
      ],
      "payable": false,
      "stateMutability": "view",
      "type": "function"
    },
    {
      "constant": true,
      "inputs": [],
      "name": "owner",
      "outputs": [
        {
          "name": "",
          "type": "address"
        }
      ],
      "payable": false,
      "stateMutability": "view",
      "type": "function"
    },
    {
      "constant": true,
      "inputs": [
        {
          "name": "",
          "type": "address"
        }
      ],
      "name": "addressToUser",
      "outputs": [
        {
          "name": "userAddress",
          "type": "address"
        },
        {
          "name": "username",
          "type": "string"
        },
        {
          "name": "id",
          "type": "uint256"
        },
        {
          "name": "admin",
          "type": "bool"
        },
        {
          "name": "creationDate",
          "type": "uint256"
        },
        {
          "name": "state",
          "type": "uint256"
        },
        {
          "name": "nonce",
          "type": "uint256"
        }
      ],
      "payable": false,
      "stateMutability": "view",
      "type": "function"
    },
    {
      "constant": true,
      "inputs": [],
      "name": "actualUserCount",
      "outputs": [
        {
          "name": "",
          "type": "uint256"
        }
      ],
      "payable": false,
      "stateMutability": "view",
      "type": "function"
    },
    {
      "inputs": [],
      "payable": false,
      "stateMutability": "nonpayable",
      "type": "constructor"
    },
    {
      "anonymous": false,
      "inputs": [
        {
          "indexed": false,
          "name": "userAddress",
          "type": "address"
        },
        {
          "indexed": false,
          "name": "username",
          "type": "string"
        },
        {
          "indexed": false,
          "name": "id",
          "type": "uint256"
        },
        {
          "indexed": false,
          "name": "admin",
          "type": "bool"
        },
        {
          "indexed": false,
          "name": "state",
          "type": "uint256"
        }
      ],
      "name": "CreateUser",
      "type": "event"
    },
    {
      "anonymous": false,
      "inputs": [
        {
          "indexed": false,
          "name": "userAddress",
          "type": "address"
        }
      ],
      "name": "RemoveUser",
      "type": "event"
    },
    {
      "anonymous": false,
      "inputs": [
        {
          "indexed": false,
          "name": "userAddress",
          "type": "address"
        },
        {
          "indexed": false,
          "name": "state",
          "type": "uint256"
        }
      ],
      "name": "ChangeUserState",
      "type": "event"
    },
    {
      "anonymous": false,
      "inputs": [
        {
          "indexed": false,
          "name": "userAddress",
          "type": "address"
        },
        {
          "indexed": false,
          "name": "nonce",
          "type": "uint256"
        }
      ],
      "name": "ChangeUserNonce",
      "type": "event"
    },
    {
      "constant": false,
      "inputs": [
        {
          "name": "_userAddress",
          "type": "address"
        },
        {
          "name": "_username",
          "type": "string"
        },
        {
          "name": "_admin",
          "type": "bool"
        },
        {
          "name": "_nonce",
          "type": "uint256"
        }
      ],
      "name": "addUser",
      "outputs": [],
      "payable": false,
      "stateMutability": "nonpayable",
      "type": "function"
    },
    {
      "constant": true,
      "inputs": [
        {
          "name": "index",
          "type": "uint256"
        }
      ],
      "name": "getUser",
      "outputs": [
        {
          "name": "",
          "type": "string"
        },
        {
          "name": "",
          "type": "address"
        },
        {
          "name": "",
          "type": "uint256"
        }
      ],
      "payable": false,
      "stateMutability": "view",
      "type": "function"
    },
    {
      "constant": true,
      "inputs": [
        {
          "name": "_username",
          "type": "string"
        }
      ],
      "name": "checkUsername",
      "outputs": [
        {
          "name": "",
          "type": "bool"
        }
      ],
      "payable": false,
      "stateMutability": "view",
      "type": "function"
    },
    {
      "constant": false,
      "inputs": [
        {
          "name": "_userAddress",
          "type": "address"
        }
      ],
      "name": "removeUser",
      "outputs": [],
      "payable": false,
      "stateMutability": "nonpayable",
      "type": "function"
    },
    {
      "constant": false,
      "inputs": [
        {
          "name": "_userAddress",
          "type": "address"
        },
        {
          "name": "_newState",
          "type": "uint256"
        }
      ],
      "name": "setUserState",
      "outputs": [],
      "payable": false,
      "stateMutability": "nonpayable",
      "type": "function"
    },
    {
      "constant": false,
      "inputs": [
        {
          "name": "_userAddress",
          "type": "address"
        },
        {
          "name": "_newNonce",
          "type": "uint256"
        }
      ],
      "name": "setUserNonce",
      "outputs": [],
      "payable": false,
      "stateMutability": "nonpayable",
      "type": "function"
    }
  ],
  "bytecode": "0x60806040526000600160006101000a81548173ffffffffffffffffffffffffffffffffffffffff021916908373ffffffffffffffffffffffffffffffffffffffff1602179055503480156200005357600080fd5b50336000806101000a81548173ffffffffffffffffffffffffffffffffffffffff021916908373ffffffffffffffffffffffffffffffffffffffff16021790555060016002819055506001600381905550620000ae620003b2565b60e0604051908101604052806000809054906101000a900473ffffffffffffffffffffffffffffffffffffffff1673ffffffffffffffffffffffffffffffffffffffff1681526020016040805190810160405280600581526020017f61646d696e00000000000000000000000000000000000000000000000000000081525081526020016002548152602001600115158152602001428152602001600181526020016000815250905080600460008060009054906101000a900473ffffffffffffffffffffffffffffffffffffffff1673ffffffffffffffffffffffffffffffffffffffff1673ffffffffffffffffffffffffffffffffffffffff16815260200190815260200160002060008201518160000160006101000a81548173ffffffffffffffffffffffffffffffffffffffff021916908373ffffffffffffffffffffffffffffffffffffffff16021790555060208201518160010190805190602001906200021d92919062000408565b506040820151816002015560608201518160030160006101000a81548160ff0219169083151502179055506080820151816004015560a0820151816005015560c0820151816006015590505060053390806001815401808255809150509060018203906000526020600020016000909192909190916101000a81548173ffffffffffffffffffffffffffffffffffffffff021916908373ffffffffffffffffffffffffffffffffffffffff160217905550507f9a50cde07e0e86c9423e28679cdb4f9a2e954ace19846095100bccf9682e6b306000809054906101000a900473ffffffffffffffffffffffffffffffffffffffff16600254600180604051808573ffffffffffffffffffffffffffffffffffffffff1673ffffffffffffffffffffffffffffffffffffffff1681526020018060200185815260200184151515158152602001838152602001828103825260058152602001807f61646d696e0000000000000000000000000000000000000000000000000000008152506020019550505050505060405180910390a150620004b7565b60e060405190810160405280600073ffffffffffffffffffffffffffffffffffffffff16815260200160608152602001600081526020016000151581526020016000815260200160008152602001600081525090565b828054600181600116156101000203166002900490600052602060002090601f016020900481019282601f106200044b57805160ff19168380011785556200047c565b828001600101855582156200047c579182015b828111156200047b5782518255916020019190600101906200045e565b5b5090506200048b91906200048f565b5090565b620004b491905b80821115620004b057600081600090555060010162000496565b5090565b90565b61196480620004c76000396000f3fe6080604052600436106100af576000357c0100000000000000000000000000000000000000000000000000000000900463ffffffff16806307973ccf146100b45780630ab57023146100df5780631aa1dc4c1461013a5780632fae35c0146102385780638da5cb5b146102b3578063985751881461030a578063a5d87c401461035b578063b0467deb1461043b578063edf5388614610529578063ee76604a1461064d578063f05361a3146106a8575b600080fd5b3480156100c057600080fd5b506100c96106d3565b6040518082815260200191505060405180910390f35b3480156100eb57600080fd5b506101386004803603604081101561010257600080fd5b81019080803573ffffffffffffffffffffffffffffffffffffffff169060200190929190803590602001909291905050506106d9565b005b34801561014657600080fd5b506102366004803603608081101561015d57600080fd5b81019080803573ffffffffffffffffffffffffffffffffffffffff1690602001909291908035906020019064010000000081111561019a57600080fd5b8201836020820111156101ac57600080fd5b803590602001918460018302840111640100000000831117156101ce57600080fd5b91908080601f016020809104026020016040519081016040528093929190818152602001838380828437600081840152601f19601f82011690508083019250505050505050919291929080351515906020019092919080359060200190929190505050610880565b005b34801561024457600080fd5b506102716004803603602081101561025b57600080fd5b8101908080359060200190929190505050610d04565b604051808273ffffffffffffffffffffffffffffffffffffffff1673ffffffffffffffffffffffffffffffffffffffff16815260200191505060405180910390f35b3480156102bf57600080fd5b506102c8610d42565b604051808273ffffffffffffffffffffffffffffffffffffffff1673ffffffffffffffffffffffffffffffffffffffff16815260200191505060405180910390f35b34801561031657600080fd5b506103596004803603602081101561032d57600080fd5b81019080803573ffffffffffffffffffffffffffffffffffffffff169060200190929190505050610d67565b005b34801561036757600080fd5b506104216004803603602081101561037e57600080fd5b810190808035906020019064010000000081111561039b57600080fd5b8201836020820111156103ad57600080fd5b803590602001918460018302840111640100000000831117156103cf57600080fd5b91908080601f016020809104026020016040519081016040528093929190818152602001838380828437600081840152601f19601f8201169050808301925050505050505091929192905050506110f9565b604051808215151515815260200191505060405180910390f35b34801561044757600080fd5b506104746004803603602081101561045e57600080fd5b810190808035906020019092919050505061125f565b60405180806020018473ffffffffffffffffffffffffffffffffffffffff1673ffffffffffffffffffffffffffffffffffffffff168152602001838152602001828103825285818151815260200191508051906020019080838360005b838110156104ec5780820151818401526020810190506104d1565b50505050905090810190601f1680156105195780820380516001836020036101000a031916815260200191505b5094505050505060405180910390f35b34801561053557600080fd5b506105786004803603602081101561054c57600080fd5b81019080803573ffffffffffffffffffffffffffffffffffffffff16906020019092919050505061146a565b604051808873ffffffffffffffffffffffffffffffffffffffff1673ffffffffffffffffffffffffffffffffffffffff1681526020018060200187815260200186151515158152602001858152602001848152602001838152602001828103825288818151815260200191508051906020019080838360005b8381101561060c5780820151818401526020810190506105f1565b50505050905090810190601f1680156106395780820380516001836020036101000a031916815260200191505b509850505050505050505060405180910390f35b34801561065957600080fd5b506106a66004803603604081101561067057600080fd5b81019080803573ffffffffffffffffffffffffffffffffffffffff16906020019092919080359060200190929190505050611571565b005b3480156106b457600080fd5b506106bd611718565b6040518082815260200191505060405180910390f35b60025481565b60011515600460003373ffffffffffffffffffffffffffffffffffffffff1673ffffffffffffffffffffffffffffffffffffffff16815260200190815260200160002060030160009054906101000a900460ff1615151415156107ca576040517f08c379a00000000000000000000000000000000000000000000000000000000081526004018080602001828103825260228152602001807f4f6e6c792061646d696e732063616e2063616c6c20746869732066756e63746981526020017f6f6e00000000000000000000000000000000000000000000000000000000000081525060400191505060405180910390fd5b80600460008473ffffffffffffffffffffffffffffffffffffffff1673ffffffffffffffffffffffffffffffffffffffff168152602001908152602001600020600601819055507f9e9e3c3de351e175070568fabdd76f668c538509bbcae70a9fd43d693797621b8282604051808373ffffffffffffffffffffffffffffffffffffffff1673ffffffffffffffffffffffffffffffffffffffff1681526020018281526020019250505060405180910390a15050565b60011515600460003373ffffffffffffffffffffffffffffffffffffffff1673ffffffffffffffffffffffffffffffffffffffff16815260200190815260200160002060030160009054906101000a900460ff161515141515610971576040517f08c379a00000000000000000000000000000000000000000000000000000000081526004018080602001828103825260228152602001807f4f6e6c792061646d696e732063616e2063616c6c20746869732066756e63746981526020017f6f6e00000000000000000000000000000000000000000000000000000000000081525060400191505060405180910390fd5b61097a836110f9565b80156109c857506000600460008673ffffffffffffffffffffffffffffffffffffffff1673ffffffffffffffffffffffffffffffffffffffff16815260200190815260200160002060020154145b1515610a3c576040517f08c379a000000000000000000000000000000000000000000000000000000000815260040180806020018281038252601b8152602001807f5468697320757365726e616d6520616c7265616479206578697374000000000081525060200191505060405180910390fd5b600260008154809291906001019190505550600360008154809291906001019190505550610a686117f5565b60e0604051908101604052808673ffffffffffffffffffffffffffffffffffffffff168152602001858152602001600254815260200184151581526020014281526020016002815260200183815250905080600460008773ffffffffffffffffffffffffffffffffffffffff1673ffffffffffffffffffffffffffffffffffffffff16815260200190815260200160002060008201518160000160006101000a81548173ffffffffffffffffffffffffffffffffffffffff021916908373ffffffffffffffffffffffffffffffffffffffff1602179055506020820151816001019080519060200190610b5c92919061184b565b506040820151816002015560608201518160030160006101000a81548160ff0219169083151502179055506080820151816004015560a0820151816005015560c0820151816006015590505060058590806001815401808255809150509060018203906000526020600020016000909192909190916101000a81548173ffffffffffffffffffffffffffffffffffffffff021916908373ffffffffffffffffffffffffffffffffffffffff160217905550507f9a50cde07e0e86c9423e28679cdb4f9a2e954ace19846095100bccf9682e6b308585600254866002604051808673ffffffffffffffffffffffffffffffffffffffff1673ffffffffffffffffffffffffffffffffffffffff1681526020018060200185815260200184151515158152602001838152602001828103825286818151815260200191508051906020019080838360005b83811015610cbf578082015181840152602081019050610ca4565b50505050905090810190601f168015610cec5780820380516001836020036101000a031916815260200191505b50965050505050505060405180910390a15050505050565b600581815481101515610d1357fe5b906000526020600020016000915054906101000a900473ffffffffffffffffffffffffffffffffffffffff1681565b6000809054906101000a900473ffffffffffffffffffffffffffffffffffffffff1681565b600160009054906101000a900473ffffffffffffffffffffffffffffffffffffffff1673ffffffffffffffffffffffffffffffffffffffff16600460008373ffffffffffffffffffffffffffffffffffffffff1673ffffffffffffffffffffffffffffffffffffffff16815260200190815260200160002060000160009054906101000a900473ffffffffffffffffffffffffffffffffffffffff1673ffffffffffffffffffffffffffffffffffffffff1614151515610e8f576040517f08c379a000000000000000000000000000000000000000000000000000000000815260040180806020018281038252600e8152602001807f75736572206e6f7420666f756e6400000000000000000000000000000000000081525060200191505060405180910390fd5b600080610e9b8361171e565b809250819350505081156110f45760006005600160025403815481101515610ebf57fe5b9060005260206000200160009054906101000a900473ffffffffffffffffffffffffffffffffffffffff16905060018201600460008373ffffffffffffffffffffffffffffffffffffffff1673ffffffffffffffffffffffffffffffffffffffff1681526020019081526020016000206002018190555080600583815481101515610f4657fe5b9060005260206000200160006101000a81548173ffffffffffffffffffffffffffffffffffffffff021916908373ffffffffffffffffffffffffffffffffffffffff160217905550600460008573ffffffffffffffffffffffffffffffffffffffff1673ffffffffffffffffffffffffffffffffffffffff168152602001908152602001600020600080820160006101000a81549073ffffffffffffffffffffffffffffffffffffffff021916905560018201600061100591906118cb565b60028201600090556003820160006101000a81549060ff02191690556004820160009055600582016000905560068201600090555050600560016002540381548110151561104f57fe5b9060005260206000200160006101000a81549073ffffffffffffffffffffffffffffffffffffffff02191690557f0ad8e54ac59bf2d8a7a1474c1af503b593553cf4fcaaffdef04ab5249f89762b84604051808273ffffffffffffffffffffffffffffffffffffffff1673ffffffffffffffffffffffffffffffffffffffff16815260200191505060405180910390a160026000815480929190600190039190505550505b505050565b600080600090505b6002548110156112545760606004600060058481548110151561112057fe5b9060005260206000200160009054906101000a900473ffffffffffffffffffffffffffffffffffffffff1673ffffffffffffffffffffffffffffffffffffffff1673ffffffffffffffffffffffffffffffffffffffff1681526020019081526020016000206001018054600181600116156101000203166002900480601f01602080910402602001604051908101604052809291908181526020018280546001816001161561010002031660029004801561121c5780601f106111f15761010080835404028352916020019161121c565b820191906000526020600020905b8154815290600101906020018083116111ff57829003601f168201915b5050505050905061122c816117c9565b611235856117c9565b14156112465760009250505061125a565b508080600101915050611101565b50600190505b919050565b606060008060008410158015611276575060025484105b151561128157600080fd5b6112896117f5565b6004600060058781548110151561129c57fe5b9060005260206000200160009054906101000a900473ffffffffffffffffffffffffffffffffffffffff1673ffffffffffffffffffffffffffffffffffffffff1673ffffffffffffffffffffffffffffffffffffffff16815260200190815260200160002060e060405190810160405290816000820160009054906101000a900473ffffffffffffffffffffffffffffffffffffffff1673ffffffffffffffffffffffffffffffffffffffff1673ffffffffffffffffffffffffffffffffffffffff168152602001600182018054600181600116156101000203166002900480601f0160208091040260200160405190810160405280929190818152602001828054600181600116156101000203166002900480156113fc5780601f106113d1576101008083540402835291602001916113fc565b820191906000526020600020905b8154815290600101906020018083116113df57829003601f168201915b50505050508152602001600282015481526020016003820160009054906101000a900460ff1615151515815260200160048201548152602001600582015481526020016006820154815250509050806020015181600001518260a00151829250935093509350509193909250565b60046020528060005260406000206000915090508060000160009054906101000a900473ffffffffffffffffffffffffffffffffffffffff1690806001018054600181600116156101000203166002900480601f01602080910402602001604051908101604052809291908181526020018280546001816001161561010002031660029004801561153c5780601f106115115761010080835404028352916020019161153c565b820191906000526020600020905b81548152906001019060200180831161151f57829003601f168201915b5050505050908060020154908060030160009054906101000a900460ff16908060040154908060050154908060060154905087565b60011515600460003373ffffffffffffffffffffffffffffffffffffffff1673ffffffffffffffffffffffffffffffffffffffff16815260200190815260200160002060030160009054906101000a900460ff161515141515611662576040517f08c379a00000000000000000000000000000000000000000000000000000000081526004018080602001828103825260228152602001807f4f6e6c792061646d696e732063616e2063616c6c20746869732066756e63746981526020017f6f6e00000000000000000000000000000000000000000000000000000000000081525060400191505060405180910390fd5b80600460008473ffffffffffffffffffffffffffffffffffffffff1673ffffffffffffffffffffffffffffffffffffffff168152602001908152602001600020600501819055507fee61b10932bf4b19c042160c29a512f049764287f88f128089f2f5d750df9ef88282604051808373ffffffffffffffffffffffffffffffffffffffff1673ffffffffffffffffffffffffffffffffffffffff1681526020018281526020019250505060405180910390a15050565b60035481565b60008060008090505b6002548110156117b85760058181548110151561174057fe5b9060005260206000200160009054906101000a900473ffffffffffffffffffffffffffffffffffffffff1673ffffffffffffffffffffffffffffffffffffffff168473ffffffffffffffffffffffffffffffffffffffff1614156117ab5760018192509250506117c4565b8080600101915050611727565b50600080809050915091505b915091565b600060608290506000815114156117e75760006001029150506117f0565b60208301519150505b919050565b60e060405190810160405280600073ffffffffffffffffffffffffffffffffffffffff16815260200160608152602001600081526020016000151581526020016000815260200160008152602001600081525090565b828054600181600116156101000203166002900490600052602060002090601f016020900481019282601f1061188c57805160ff19168380011785556118ba565b828001600101855582156118ba579182015b828111156118b957825182559160200191906001019061189e565b5b5090506118c79190611913565b5090565b50805460018160011615610100020316600290046000825580601f106118f15750611910565b601f01602090049060005260206000209081019061190f9190611913565b5b50565b61193591905b80821115611931576000816000905550600101611919565b5090565b9056fea165627a7a723058208993537ba3a54a7cda8663c1383d8aaf77d47171c41a9a797714913bc5da25a10029",
  "source": "pragma solidity ^0.5.0;\n\ncontract ControlAcceso {\n    address public owner;\n    address nullAddress = 0x0000000000000000000000000000000000000000;\n    uint public userCount;\n    uint public actualUserCount;\n    mapping(address => User) public addressToUser;\n    // mapping(uint => address) public idToUserAddress;\n    address[] public usersArray;\n    /*\n\n     */\n    struct User {\n        address userAddress;\n        string username;\n        uint id;\n        bool admin;\n        uint creationDate;\n        uint state;\n        uint nonce;\n    }\n\n    event CreateUser(\n        address userAddress,\n        string username,\n        uint id,\n        bool admin,\n        uint state\n    );\n\n    event RemoveUser(\n        address userAddress\n    );\n\n    event ChangeUserState(\n        address userAddress,\n        uint state\n    );\n\n    event ChangeUserNonce(\n        address userAddress,\n        uint nonce\n    );\n\n    constructor() public {\n        owner = msg.sender;\n        userCount = 1;\n        actualUserCount = 1;\n        User memory _newUser = User(owner, \"admin\", userCount, true, now, 1, 0);\n        addressToUser[owner] = _newUser;\n        usersArray.push(msg.sender);\n        emit CreateUser(owner, \"admin\", userCount, true, 1);\n    }\n\n    modifier onlyOwner {\n        require(msg.sender == owner, \"Only owner can call this function\");\n        _;\n    }\n\n    modifier onlyAdmin {\n        // require(addressToUser[msg.sender].userAddress != nullAddress && addressToUser[msg.sender].admin == true, \"Only admins can call this function\");\n        require(addressToUser[msg.sender].admin == true, \"Only admins can call this function\");\n        _;\n    }\n\n    function addUser(address _userAddress, string memory _username, bool _admin, uint _nonce) public onlyAdmin {\n        require(checkUsername(_username) && addressToUser[_userAddress].id == 0, \"This username already exist\");\n        userCount++;\n        actualUserCount++;\n        User memory _newUser = User(_userAddress, _username, userCount,_admin, now , 2, _nonce);\n        addressToUser[_userAddress] = _newUser;\n        // idToUserAddress[userCount] = _userAddress;\n        usersArray.push(_userAddress);\n        emit CreateUser(_userAddress, _username, userCount, _admin, 2);\n    }\n\n\n    /* \n        !!! Función de testeo, ELIMINAR O COMENTAR LUEGO.\n    */\n    function getUser(uint index) public view returns (string memory, address, uint){\n        require(index >= 0 && index < userCount);\n        User memory _user = addressToUser[usersArray[index]];\n        return (_user.username, _user.userAddress, _user.state);\n    }\n\n    /*  Función que comprueba si un userame está en uso.\n        Disminuye mucho la eficiencia del contrato, pues puede \n        conllevar un gran gasto de gas al crecer el\n        número de usuarios. \n    */\n    function checkUsername(string memory _username) public view returns(bool) {\n         for(uint i = 0; i < userCount; i++) {\n            // address exu = usersArray[i];\n            string memory aux = addressToUser[usersArray[i]].username;\n            //string memory aux = addressToUser[idToUserAddress[i]].username;\n            if(stringToBytes32(_username) == stringToBytes32(aux)) {\n                return false;\n            }\n        }\n        return true;\n    }\n\n    // Utilidad para pasar pasar de string a bytes32 y poder comparar cadenas.\n    function stringToBytes32(string memory source) private pure returns (bytes32 result) {\n        bytes memory tempEmptyStringTest = bytes(source);\n        if (tempEmptyStringTest.length == 0) {\n            return 0x0;\n        }\n\n        assembly {\n            result := mload(add(source, 32))\n        }\n    }\n\n    /*\n        Busca en el array de usuarios la posición del usuario con address _user.\n        Devuelve una tupla con un booleano que indica si se ha encontrado y un \n        entero que indica la posición donde se ha encontrado.\n     */\n    function findUserIndex(address _user) private view returns (bool, uint) {\n        for(uint i = 0; i < userCount; i++) {\n            if(_user == usersArray[i]) {\n                return (true,i);\n            }\n        }\n        return (false, 0);\n    }\n\n    function removeUser(address _userAddress) public {\n        // requerir que sea admin o el propio usuario\n        require (addressToUser[_userAddress].userAddress != nullAddress, 'user not found');\n        bool finded;\n        uint index;\n        (finded, index) = findUserIndex(_userAddress);\n\n        if(finded) {\n            address lastUser = usersArray[userCount-1];\n            addressToUser[lastUser].id = index+1; // puede que sobre\n            usersArray[index] = lastUser;\n            delete addressToUser[_userAddress];\n            delete usersArray[userCount-1];\n            emit RemoveUser(_userAddress);\n            userCount--;\n        }\n    }\n\n    function setUserState(address _userAddress, uint _newState) public onlyAdmin {\n        addressToUser[_userAddress].state = _newState;\n        emit ChangeUserState(_userAddress, _newState);\n    }\n\n    function setUserNonce(address _userAddress, uint _newNonce) public onlyAdmin {\n        addressToUser[_userAddress].nonce = _newNonce;\n        emit ChangeUserNonce(_userAddress, _newNonce);\n    }\n}",
  "sourcePath": "/Users/yisus/Documents/TFG/server-authentication-blockchain/contracts/ControlAcceso.sol",
  "compiler": {
    "name": "solc",
    "version": "0.5.0+commit.1d4f565a.Emscripten.clang"
  },
  "schemaVersion": "3.0.9",
  "updatedAt": "2019-05-28T22:15:35.700Z",
  "devdoc": {
    "methods": {}
  },
  "userdoc": {
    "methods": {}
  }
}