{
  "contractName": "ControlAcceso",
  "abi": [
    {
      "constant": true,
      "inputs": [],
      "name": "userCount",
      "outputs": [
        {
          "name": "",
          "type": "uint256"
        }
      ],
      "payable": false,
      "stateMutability": "view",
      "type": "function",
      "signature": "0x07973ccf"
    },
    {
      "constant": true,
      "inputs": [
        {
          "name": "",
          "type": "uint256"
        }
      ],
      "name": "usersArray",
      "outputs": [
        {
          "name": "",
          "type": "address"
        }
      ],
      "payable": false,
      "stateMutability": "view",
      "type": "function",
      "signature": "0x2fae35c0"
    },
    {
      "constant": true,
      "inputs": [],
      "name": "owner",
      "outputs": [
        {
          "name": "",
          "type": "address"
        }
      ],
      "payable": false,
      "stateMutability": "view",
      "type": "function",
      "signature": "0x8da5cb5b"
    },
    {
      "constant": true,
      "inputs": [
        {
          "name": "",
          "type": "address"
        }
      ],
      "name": "addressToUser",
      "outputs": [
        {
          "name": "userAddress",
          "type": "address"
        },
        {
          "name": "username",
          "type": "string"
        },
        {
          "name": "id",
          "type": "uint256"
        },
        {
          "name": "admin",
          "type": "bool"
        },
        {
          "name": "creationDate",
          "type": "uint256"
        },
        {
          "name": "state",
          "type": "uint256"
        }
      ],
      "payable": false,
      "stateMutability": "view",
      "type": "function",
      "signature": "0xedf53886"
    },
    {
      "constant": true,
      "inputs": [],
      "name": "actualUserCount",
      "outputs": [
        {
          "name": "",
          "type": "uint256"
        }
      ],
      "payable": false,
      "stateMutability": "view",
      "type": "function",
      "signature": "0xf05361a3"
    },
    {
      "inputs": [],
      "payable": false,
      "stateMutability": "nonpayable",
      "type": "constructor",
      "signature": "constructor"
    },
    {
      "anonymous": false,
      "inputs": [
        {
          "indexed": false,
          "name": "userAddress",
          "type": "address"
        },
        {
          "indexed": false,
          "name": "username",
          "type": "string"
        },
        {
          "indexed": false,
          "name": "id",
          "type": "uint256"
        },
        {
          "indexed": false,
          "name": "admin",
          "type": "bool"
        },
        {
          "indexed": false,
          "name": "state",
          "type": "uint256"
        }
      ],
      "name": "CreateUser",
      "type": "event",
      "signature": "0x9a50cde07e0e86c9423e28679cdb4f9a2e954ace19846095100bccf9682e6b30"
    },
    {
      "anonymous": false,
      "inputs": [
        {
          "indexed": false,
          "name": "userAddress",
          "type": "address"
        }
      ],
      "name": "RemoveUser",
      "type": "event",
      "signature": "0x0ad8e54ac59bf2d8a7a1474c1af503b593553cf4fcaaffdef04ab5249f89762b"
    },
    {
      "anonymous": false,
      "inputs": [
        {
          "indexed": false,
          "name": "_userAddress",
          "type": "address"
        },
        {
          "indexed": false,
          "name": "_newState",
          "type": "uint256"
        }
      ],
      "name": "ChangeStateUser",
      "type": "event",
      "signature": "0x829216142f0bfafee2dd8d8a10e74c29a811ce83ebca4a5ea495dfaf65bc70c5"
    },
    {
      "constant": false,
      "inputs": [
        {
          "name": "_userAddress",
          "type": "address"
        },
        {
          "name": "_username",
          "type": "string"
        },
        {
          "name": "_admin",
          "type": "bool"
        }
      ],
      "name": "addUser",
      "outputs": [],
      "payable": false,
      "stateMutability": "nonpayable",
      "type": "function",
      "signature": "0x06dde62d"
    },
    {
      "constant": true,
      "inputs": [
        {
          "name": "index",
          "type": "uint256"
        }
      ],
      "name": "getUser",
      "outputs": [
        {
          "name": "",
          "type": "string"
        },
        {
          "name": "",
          "type": "address"
        },
        {
          "name": "",
          "type": "uint256"
        }
      ],
      "payable": false,
      "stateMutability": "view",
      "type": "function",
      "signature": "0xb0467deb"
    },
    {
      "constant": true,
      "inputs": [
        {
          "name": "_username",
          "type": "string"
        }
      ],
      "name": "checkUsername",
      "outputs": [
        {
          "name": "",
          "type": "bool"
        }
      ],
      "payable": false,
      "stateMutability": "view",
      "type": "function",
      "signature": "0xa5d87c40"
    },
    {
      "constant": false,
      "inputs": [
        {
          "name": "_userAddress",
          "type": "address"
        }
      ],
      "name": "removeUser",
      "outputs": [],
      "payable": false,
      "stateMutability": "nonpayable",
      "type": "function",
      "signature": "0x98575188"
    },
    {
      "constant": false,
      "inputs": [
        {
          "name": "_userAddress",
          "type": "address"
        },
        {
          "name": "_newState",
          "type": "uint256"
        }
      ],
      "name": "setUserState",
      "outputs": [],
      "payable": false,
      "stateMutability": "nonpayable",
      "type": "function",
      "signature": "0xee76604a"
    }
  ],
  "bytecode": "0x60806040526000600160006101000a81548173ffffffffffffffffffffffffffffffffffffffff021916908373ffffffffffffffffffffffffffffffffffffffff1602179055503480156200005357600080fd5b50336000806101000a81548173ffffffffffffffffffffffffffffffffffffffff021916908373ffffffffffffffffffffffffffffffffffffffff16021790555060016002819055506001600381905550620000ae620003a2565b60c0604051908101604052806000809054906101000a900473ffffffffffffffffffffffffffffffffffffffff1673ffffffffffffffffffffffffffffffffffffffff1681526020016040805190810160405280600581526020017f61646d696e000000000000000000000000000000000000000000000000000000815250815260200160025481526020016001151581526020014281526020016002815250905080600460008060009054906101000a900473ffffffffffffffffffffffffffffffffffffffff1673ffffffffffffffffffffffffffffffffffffffff1673ffffffffffffffffffffffffffffffffffffffff16815260200190815260200160002060008201518160000160006101000a81548173ffffffffffffffffffffffffffffffffffffffff021916908373ffffffffffffffffffffffffffffffffffffffff160217905550602082015181600101908051906020019062000216929190620003f1565b506040820151816002015560608201518160030160006101000a81548160ff0219169083151502179055506080820151816004015560a0820151816005015590505060053390806001815401808255809150509060018203906000526020600020016000909192909190916101000a81548173ffffffffffffffffffffffffffffffffffffffff021916908373ffffffffffffffffffffffffffffffffffffffff160217905550507f9a50cde07e0e86c9423e28679cdb4f9a2e954ace19846095100bccf9682e6b306000809054906101000a900473ffffffffffffffffffffffffffffffffffffffff1660025460016002604051808573ffffffffffffffffffffffffffffffffffffffff1673ffffffffffffffffffffffffffffffffffffffff1681526020018060200185815260200184151515158152602001838152602001828103825260058152602001807f61646d696e0000000000000000000000000000000000000000000000000000008152506020019550505050505060405180910390a150620004a0565b60c060405190810160405280600073ffffffffffffffffffffffffffffffffffffffff168152602001606081526020016000815260200160001515815260200160008152602001600081525090565b828054600181600116156101000203166002900490600052602060002090601f016020900481019282601f106200043457805160ff191683800117855562000465565b8280016001018555821562000465579182015b828111156200046457825182559160200191906001019062000447565b5b50905062000474919062000478565b5090565b6200049d91905b80821115620004995760008160009055506001016200047f565b5090565b90565b61171680620004b06000396000f3fe6080604052600436106100a4576000357c0100000000000000000000000000000000000000000000000000000000900463ffffffff16806306dde62d146100a957806307973ccf1461019d5780632fae35c0146101c85780638da5cb5b14610243578063985751881461029a578063a5d87c40146102eb578063b0467deb146103cb578063edf53886146104b9578063ee76604a146105d6578063f05361a314610631575b600080fd5b3480156100b557600080fd5b5061019b600480360360608110156100cc57600080fd5b81019080803573ffffffffffffffffffffffffffffffffffffffff1690602001909291908035906020019064010000000081111561010957600080fd5b82018360208201111561011b57600080fd5b8035906020019184600183028401116401000000008311171561013d57600080fd5b91908080601f016020809104026020016040519081016040528093929190818152602001838380828437600081840152601f19601f82011690508083019250505050505050919291929080351515906020019092919050505061065c565b005b3480156101a957600080fd5b506101b2610acf565b6040518082815260200191505060405180910390f35b3480156101d457600080fd5b50610201600480360360208110156101eb57600080fd5b8101908080359060200190929190505050610ad5565b604051808273ffffffffffffffffffffffffffffffffffffffff1673ffffffffffffffffffffffffffffffffffffffff16815260200191505060405180910390f35b34801561024f57600080fd5b50610258610b13565b604051808273ffffffffffffffffffffffffffffffffffffffff1673ffffffffffffffffffffffffffffffffffffffff16815260200191505060405180910390f35b3480156102a657600080fd5b506102e9600480360360208110156102bd57600080fd5b81019080803573ffffffffffffffffffffffffffffffffffffffff169060200190929190505050610b38565b005b3480156102f757600080fd5b506103b16004803603602081101561030e57600080fd5b810190808035906020019064010000000081111561032b57600080fd5b82018360208201111561033d57600080fd5b8035906020019184600183028401116401000000008311171561035f57600080fd5b91908080601f016020809104026020016040519081016040528093929190818152602001838380828437600081840152601f19601f820116905080830192505050505050509192919290505050610ec2565b604051808215151515815260200191505060405180910390f35b3480156103d757600080fd5b50610404600480360360208110156103ee57600080fd5b8101908080359060200190929190505050611028565b60405180806020018473ffffffffffffffffffffffffffffffffffffffff1673ffffffffffffffffffffffffffffffffffffffff168152602001838152602001828103825285818151815260200191508051906020019080838360005b8381101561047c578082015181840152602081019050610461565b50505050905090810190601f1680156104a95780820380516001836020036101000a031916815260200191505b5094505050505060405180910390f35b3480156104c557600080fd5b50610508600480360360208110156104dc57600080fd5b81019080803573ffffffffffffffffffffffffffffffffffffffff169060200190929190505050611229565b604051808773ffffffffffffffffffffffffffffffffffffffff1673ffffffffffffffffffffffffffffffffffffffff1681526020018060200186815260200185151515158152602001848152602001838152602001828103825287818151815260200191508051906020019080838360005b8381101561059657808201518184015260208101905061057b565b50505050905090810190601f1680156105c35780820380516001836020036101000a031916815260200191505b5097505050505050505060405180910390f35b3480156105e257600080fd5b5061062f600480360360408110156105f957600080fd5b81019080803573ffffffffffffffffffffffffffffffffffffffff1690602001909291908035906020019092919050505061132a565b005b34801561063d57600080fd5b506106466114d1565b6040518082815260200191505060405180910390f35b60011515600460003373ffffffffffffffffffffffffffffffffffffffff1673ffffffffffffffffffffffffffffffffffffffff16815260200190815260200160002060030160009054906101000a900460ff16151514151561074d576040517f08c379a00000000000000000000000000000000000000000000000000000000081526004018080602001828103825260228152602001807f4f6e6c792061646d696e732063616e2063616c6c20746869732066756e63746981526020017f6f6e00000000000000000000000000000000000000000000000000000000000081525060400191505060405180910390fd5b61075682610ec2565b80156107a457506000600460008573ffffffffffffffffffffffffffffffffffffffff1673ffffffffffffffffffffffffffffffffffffffff16815260200190815260200160002060020154145b1515610818576040517f08c379a000000000000000000000000000000000000000000000000000000000815260040180806020018281038252601b8152602001807f5468697320757365726e616d6520616c7265616479206578697374000000000081525060200191505060405180910390fd5b6002600081548092919060010191905055506003600081548092919060010191905055506108446115ae565b60c0604051908101604052808573ffffffffffffffffffffffffffffffffffffffff168152602001848152602001600254815260200183151581526020014281526020016002815250905080600460008673ffffffffffffffffffffffffffffffffffffffff1673ffffffffffffffffffffffffffffffffffffffff16815260200190815260200160002060008201518160000160006101000a81548173ffffffffffffffffffffffffffffffffffffffff021916908373ffffffffffffffffffffffffffffffffffffffff16021790555060208201518160010190805190602001906109329291906115fd565b506040820151816002015560608201518160030160006101000a81548160ff0219169083151502179055506080820151816004015560a0820151816005015590505060058490806001815401808255809150509060018203906000526020600020016000909192909190916101000a81548173ffffffffffffffffffffffffffffffffffffffff021916908373ffffffffffffffffffffffffffffffffffffffff160217905550507f9a50cde07e0e86c9423e28679cdb4f9a2e954ace19846095100bccf9682e6b308484600254856002604051808673ffffffffffffffffffffffffffffffffffffffff1673ffffffffffffffffffffffffffffffffffffffff1681526020018060200185815260200184151515158152602001838152602001828103825286818151815260200191508051906020019080838360005b83811015610a8b578082015181840152602081019050610a70565b50505050905090810190601f168015610ab85780820380516001836020036101000a031916815260200191505b50965050505050505060405180910390a150505050565b60025481565b600581815481101515610ae457fe5b906000526020600020016000915054906101000a900473ffffffffffffffffffffffffffffffffffffffff1681565b6000809054906101000a900473ffffffffffffffffffffffffffffffffffffffff1681565b600160009054906101000a900473ffffffffffffffffffffffffffffffffffffffff1673ffffffffffffffffffffffffffffffffffffffff16600460008373ffffffffffffffffffffffffffffffffffffffff1673ffffffffffffffffffffffffffffffffffffffff16815260200190815260200160002060000160009054906101000a900473ffffffffffffffffffffffffffffffffffffffff1673ffffffffffffffffffffffffffffffffffffffff1614151515610c60576040517f08c379a000000000000000000000000000000000000000000000000000000000815260040180806020018281038252600e8152602001807f75736572206e6f7420666f756e6400000000000000000000000000000000000081525060200191505060405180910390fd5b600080610c6c836114d7565b80925081935050508115610ebd5760006005600160025403815481101515610c9057fe5b9060005260206000200160009054906101000a900473ffffffffffffffffffffffffffffffffffffffff16905060018201600460008373ffffffffffffffffffffffffffffffffffffffff1673ffffffffffffffffffffffffffffffffffffffff1681526020019081526020016000206002018190555080600583815481101515610d1757fe5b9060005260206000200160006101000a81548173ffffffffffffffffffffffffffffffffffffffff021916908373ffffffffffffffffffffffffffffffffffffffff160217905550600460008573ffffffffffffffffffffffffffffffffffffffff1673ffffffffffffffffffffffffffffffffffffffff168152602001908152602001600020600080820160006101000a81549073ffffffffffffffffffffffffffffffffffffffff0219169055600182016000610dd6919061167d565b60028201600090556003820160006101000a81549060ff02191690556004820160009055600582016000905550506005600160025403815481101515610e1857fe5b9060005260206000200160006101000a81549073ffffffffffffffffffffffffffffffffffffffff02191690557f0ad8e54ac59bf2d8a7a1474c1af503b593553cf4fcaaffdef04ab5249f89762b84604051808273ffffffffffffffffffffffffffffffffffffffff1673ffffffffffffffffffffffffffffffffffffffff16815260200191505060405180910390a160026000815480929190600190039190505550505b505050565b600080600090505b60025481101561101d57606060046000600584815481101515610ee957fe5b9060005260206000200160009054906101000a900473ffffffffffffffffffffffffffffffffffffffff1673ffffffffffffffffffffffffffffffffffffffff1673ffffffffffffffffffffffffffffffffffffffff1681526020019081526020016000206001018054600181600116156101000203166002900480601f016020809104026020016040519081016040528092919081815260200182805460018160011615610100020316600290048015610fe55780601f10610fba57610100808354040283529160200191610fe5565b820191906000526020600020905b815481529060010190602001808311610fc857829003601f168201915b50505050509050610ff581611582565b610ffe85611582565b141561100f57600092505050611023565b508080600101915050610eca565b50600190505b919050565b60606000806000841015801561103f575060025484105b151561104a57600080fd5b6110526115ae565b6004600060058781548110151561106557fe5b9060005260206000200160009054906101000a900473ffffffffffffffffffffffffffffffffffffffff1673ffffffffffffffffffffffffffffffffffffffff1673ffffffffffffffffffffffffffffffffffffffff16815260200190815260200160002060c060405190810160405290816000820160009054906101000a900473ffffffffffffffffffffffffffffffffffffffff1673ffffffffffffffffffffffffffffffffffffffff1673ffffffffffffffffffffffffffffffffffffffff168152602001600182018054600181600116156101000203166002900480601f0160208091040260200160405190810160405280929190818152602001828054600181600116156101000203166002900480156111c55780601f1061119a576101008083540402835291602001916111c5565b820191906000526020600020905b8154815290600101906020018083116111a857829003601f168201915b50505050508152602001600282015481526020016003820160009054906101000a900460ff16151515158152602001600482015481526020016005820154815250509050806020015181600001518260a00151829250935093509350509193909250565b60046020528060005260406000206000915090508060000160009054906101000a900473ffffffffffffffffffffffffffffffffffffffff1690806001018054600181600116156101000203166002900480601f0160208091040260200160405190810160405280929190818152602001828054600181600116156101000203166002900480156112fb5780601f106112d0576101008083540402835291602001916112fb565b820191906000526020600020905b8154815290600101906020018083116112de57829003601f168201915b5050505050908060020154908060030160009054906101000a900460ff16908060040154908060050154905086565b60011515600460003373ffffffffffffffffffffffffffffffffffffffff1673ffffffffffffffffffffffffffffffffffffffff16815260200190815260200160002060030160009054906101000a900460ff16151514151561141b576040517f08c379a00000000000000000000000000000000000000000000000000000000081526004018080602001828103825260228152602001807f4f6e6c792061646d696e732063616e2063616c6c20746869732066756e63746981526020017f6f6e00000000000000000000000000000000000000000000000000000000000081525060400191505060405180910390fd5b80600460008473ffffffffffffffffffffffffffffffffffffffff1673ffffffffffffffffffffffffffffffffffffffff168152602001908152602001600020600501819055507f829216142f0bfafee2dd8d8a10e74c29a811ce83ebca4a5ea495dfaf65bc70c58282604051808373ffffffffffffffffffffffffffffffffffffffff1673ffffffffffffffffffffffffffffffffffffffff1681526020018281526020019250505060405180910390a15050565b60035481565b60008060008090505b600254811015611571576005818154811015156114f957fe5b9060005260206000200160009054906101000a900473ffffffffffffffffffffffffffffffffffffffff1673ffffffffffffffffffffffffffffffffffffffff168473ffffffffffffffffffffffffffffffffffffffff16141561156457600181925092505061157d565b80806001019150506114e0565b50600080809050915091505b915091565b600060608290506000815114156115a05760006001029150506115a9565b60208301519150505b919050565b60c060405190810160405280600073ffffffffffffffffffffffffffffffffffffffff168152602001606081526020016000815260200160001515815260200160008152602001600081525090565b828054600181600116156101000203166002900490600052602060002090601f016020900481019282601f1061163e57805160ff191683800117855561166c565b8280016001018555821561166c579182015b8281111561166b578251825591602001919060010190611650565b5b50905061167991906116c5565b5090565b50805460018160011615610100020316600290046000825580601f106116a357506116c2565b601f0160209004906000526020600020908101906116c191906116c5565b5b50565b6116e791905b808211156116e35760008160009055506001016116cb565b5090565b9056fea165627a7a723058205b7609d283e7cae8bc6777f07f766b6c35849bbeb4ccadeefee84fded07cb9be0029",
  "source": "pragma solidity ^0.5.0;\n\ncontract ControlAcceso {\n    address public owner;\n    address nullAddress = 0x0000000000000000000000000000000000000000;\n    uint public userCount;\n    uint public actualUserCount;\n    mapping(address => User) public addressToUser;\n    // mapping(uint => address) public idToUserAddress;\n    address[] public usersArray;\n    /*\n\n     */\n    struct User {\n        address userAddress;\n        string username;\n        uint id;\n        bool admin;\n        uint creationDate;\n        uint state;\n    }\n\n    event CreateUser(\n        address userAddress,\n        string username,\n        uint id,\n        bool admin,\n        uint state\n    );\n\n    event RemoveUser(\n        address userAddress\n    );\n\n    event ChangeStateUser(\n        address _userAddress,\n        uint _newState\n    );\n\n    constructor() public {\n        owner = msg.sender;\n        userCount = 1;\n        actualUserCount = 1;\n        User memory _newUser = User(owner, \"admin\", userCount, true, now, 2);\n        addressToUser[owner] = _newUser;\n        usersArray.push(msg.sender);\n        emit CreateUser(owner, \"admin\", userCount, true, 2);\n    }\n\n    modifier onlyOwner {\n        require(msg.sender == owner, \"Only owner can call this function\");\n        _;\n    }\n\n    modifier onlyAdmin {\n        // require(addressToUser[msg.sender].userAddress != nullAddress && addressToUser[msg.sender].admin == true, \"Only admins can call this function\");\n        require(addressToUser[msg.sender].admin == true, \"Only admins can call this function\");\n        _;\n    }\n\n    function addUser(address _userAddress, string memory _username, bool _admin) public onlyAdmin {\n        require(checkUsername(_username) && addressToUser[_userAddress].id == 0, \"This username already exist\");\n        userCount++;\n        actualUserCount++;\n        User memory _newUser = User(_userAddress, _username, userCount,_admin, now , 2);\n        addressToUser[_userAddress] = _newUser;\n        // idToUserAddress[userCount] = _userAddress;\n        usersArray.push(_userAddress);\n        emit CreateUser(_userAddress, _username, userCount, _admin, 2);\n    }\n\n\n    /* \n        !!! Función de testeo, ELIMINAR O COMENTAR LUEGO.\n    */\n    function getUser(uint index) public view returns (string memory, address, uint){\n        require(index >= 0 && index < userCount);\n        User memory _user = addressToUser[usersArray[index]];\n        return (_user.username, _user.userAddress, _user.state);\n    }\n\n    /*  Función que comprueba si un userame está en uso.\n        Disminuye mucho la eficiencia del contrato, pues puede \n        conllevar un gran gasto de gas al crecer el\n        número de usuarios. \n    */\n    function checkUsername(string memory _username) public view returns(bool) {\n         for(uint i = 0; i < userCount; i++) {\n            // address exu = usersArray[i];\n            string memory aux = addressToUser[usersArray[i]].username;\n            //string memory aux = addressToUser[idToUserAddress[i]].username;\n            if(stringToBytes32(_username) == stringToBytes32(aux)) {\n                return false;\n            }\n        }\n        return true;\n    }\n\n    // Utilidad para pasar pasar de string a bytes32 y poder comparar cadenas.\n    function stringToBytes32(string memory source) private pure returns (bytes32 result) {\n        bytes memory tempEmptyStringTest = bytes(source);\n        if (tempEmptyStringTest.length == 0) {\n            return 0x0;\n        }\n\n        assembly {\n            result := mload(add(source, 32))\n        }\n    }\n\n    /*\n        Busca en el array de usuarios la posición del usuario con address _user.\n        Devuelve una tupla con un booleano que indica si se ha encontrado y un \n        entero que indica la posición donde se ha encontrado.\n     */\n    function findUserIndex(address _user) private view returns (bool, uint) {\n        for(uint i = 0; i < userCount; i++) {\n            if(_user == usersArray[i]) {\n                return (true,i);\n            }\n        }\n        return (false, 0);\n    }\n\n    function removeUser(address _userAddress) public {\n        // requerir que sea admin o el propio usuario\n        require (addressToUser[_userAddress].userAddress != nullAddress, 'user not found');\n        bool finded;\n        uint index;\n        (finded, index) = findUserIndex(_userAddress);\n\n        if(finded) {\n            address lastUser = usersArray[userCount-1];\n            addressToUser[lastUser].id = index+1; // puede que sobre\n            usersArray[index] = lastUser;\n            delete addressToUser[_userAddress];\n            delete usersArray[userCount-1];\n            emit RemoveUser(_userAddress);\n            userCount--;\n        }\n    }\n\n    function setUserState(address _userAddress, uint _newState) public onlyAdmin {\n        addressToUser[_userAddress].state = _newState;\n        emit ChangeStateUser(_userAddress, _newState);\n\n    }\n}",
  "sourcePath": "/home/yisus/Documentos/IngenieriaInformatica/Cuarto/Segundo Cuatrimestre/server-access-control/contracts/ControlAcceso.sol",
  "compiler": {
    "name": "solc",
    "version": "0.5.0+commit.1d4f565a.Emscripten.clang"
  },
  "schemaVersion": "3.0.6",
  "updatedAt": "2019-05-26T18:31:57.246Z",
  "devdoc": {
    "methods": {}
  },
  "userdoc": {
    "methods": {}
  }
}